:100000000C947300189518951895189518951895CF
:100010001895189518951895189518951895189578
:100020001895189518951895189518951895189568
:100030001895189518951895189518951895189558
:100040001895189518951895189518951895189548
:100050001895189518951895189518951895189538
:1000600018951895189518959A938A93802F912F23
:10007000082F0927043128F400E411E00E94E4006D
:1000800004C003E411E00E94E4008991999108956D
:1000900014E10AE0E9DF00E010E0089508952897F0
:1000A000088319832A833B834C835D839E010BE085
:1000B0000E944E000E811F81289608959A938A937C
:1000C0002297C801888399839E0101E00E944E0017
:1000D000F9CF622F632B19F400E010E008950C941F
:1000E0004F000C945E000FE30DBF01E00EBFC0E2B5
:1000F000D1E00E94D200002311F00E9419010E9459
:1001000048000E9485000C9471000C947100149FAB
:10011000102D059F100D049F002D110D0895002432
:1001200011241001E0E2001F111F221F331FEA9566
:1001300072F0001C111C221C331C04161506260626
:10014000370688F3041A150A260A370AECCFA001ED
:10015000B10100951095209530950895EA92DA92B4
:10016000CA92BA92AA929A928A927A926A925A926F
:100170004A92BA93AA939A938A930895EE84DD845F
:10018000CC84BB84AA84998488847F806E805D80BF
:100190004C80BB81AA8199818881F0E0EC0FFD1F22
:1001A000EF01089501E0089504C00F5F1F4F415013
:1001B0005040342F352B29F0F80130813217A9F740
:1001C000089500E010E0089522979E012E5F3F4FB2
:1001D00028833983BE01A80121E030E00CE414E05B
:1001E0000E94EB01229608959A938A932197C80161
:1001F0000F3F1F4F61F0888341E050E09E018A016C
:100200000E9469000130104011F48C0102C00FEF10
:100210001FEF219689919991089520E02D93015027
:100220001040E1F7089525912D9301501040D9F722
:1002300008958CEB98E0FC0105911491FC01329635
:10024000A591B491FC01349625913491422F432B12
:1002500019F0F901E8DF01C0E0DF069618E0823C02
:10026000910748F30895F8013191321729F08F0171
:100270003323C9F700E010E00895F80101C031967A
:1002800020812223E1F7E01BF10B8F0108950E94EA
:10029000AE004801E22EF801C084D1842F3611F45B
:1002A00008E007C0022F0062083711F00AE001C021
:1002B00000E1A02E88E190E040805180628073814F
:1002C000772E243611F0293659F477234AF45094C6
:1002D000609470950FEF4194500A600A7F4F772E1B
:1002E000042D05290629072979F402891389012B90
:1002F00059F40A2D0830A9F5068903FF32C087E1B9
:10030000F60100E3078B2DC001975DD0405D242FDF
:100310004A3320F00E2D0155400F242F8601080F7F
:10032000191FD801F80120834ED028013901012B73
:10033000022B032B31F0F401068117810A171B07EA
:1003400018F30A2D083069F4F401068903FF09C087
:100350000C91003331F00197F601E80FF91F00E32B
:10036000008308E110E0081B190BF40104871587CE
:10037000C80ED91EC682D782228933890217130775
:1003800044F4201B310B2687378706890F7E068BA6
:1003900017C03323AAF426892471203189F4848973
:1003A000958922853385821B930B26853785821B91
:1003B000930BB4D1813000E0900714F086879787C3
:1003C000EFE00C94BE004A2D50E060E070E0820146
:1003D00093010C948F002CD2E1973801DA012B01A4
:1003E0002C833D8300E0088B098B0C91002319F4CA
:1003F0000889198969C1053251F400E00A870B8721
:100400000C870D870E870F8720E030E006C04D91E6
:100410009E013ED252F756C1216011960C91102FC9
:100420001052D1F3135059F0185029F0125029F0FE
:10043000135039F008C02260F0CF2460EECF28605E
:10044000ECCF2061EACF0A3271F47BD10C8B1D8B8B
:1004500011233AF40C891195019510400C8B1D8BDA
:10046000246011960FC03C8B3D8B0AC00C891D89FE
:100470000F3F4FE7140719F071D10C8B1D8B1196AC
:100480003AD1A0F30C910E3221F00FEF0A8B0B8BB7
:1004900018C011960C910A3229F453D10A8B1B8B88
:1004A00011960FC03A8B3B8B0AC00A891B890F3FFC
:1004B0004FE7140719F052D10A8B1B8B11961BD1F1
:1004C000A0F32E8B3F8B2C9107E411E00E943301A7
:1004D000012B11F00D9101C000E0088F083631F4B6
:1004E0000C91083619F402E6088F119600D108879E
:1004F00019878D91082F0552B9F0035309F443C0B1
:100500000B5009F4A9C00A9509F482C0055009F4FA
:100510007FC00650C1F10A9559F1035041F00250D5
:1005200091F1035081F19EC0FCD005E299C0EFD05B
:100530000ED10E831F831B8911232AF40E811F8184
:100540000E943D0112C04A89512F20E030E00E8107
:100550001F810E94D400202F212B29F02E813F8162
:10056000021B130B02C00A891B890C871D8782C0DE
:10057000C7D0EFD0088319832A832B83B8D00E838A
:100580001F8328E766C0088D0C3619F4B9D02C5F9C
:1005900008C0013711F4B4D003C00A36B1D031F429
:1005A000285FB8D0D4D02281338102C0D2D030E0CD
:1005B00099D020E0488D483651F0488D423619F4E4
:1005C0000883298306C0443711F04A3721F4088391
:1005D00019832A832B830E8903FF33C00881198175
:1005E0002A813B81012B022B032B59F1082F00623A
:1005F000083739F52A853B856BD000E300832F5FF0
:100600003F4F89010F5F1F4F8ED062D0808319C08A
:100610009201088DACD066D033231AF45ED00DE27F
:100620000AC00E8901FF03C058D00BE204C000FFCE
:1006300008C053D000E200830A851B850F5F1F4F5F
:1006400072D055D02A853B85020F131F0E831F835E
:10065000282F8E011CDE0EC064D059D0F801008115
:10066000098F08C05ED005E2098F882319F002E0E7
:100670005AD08A8F8C899D890A851B854FD00E851B
:100680001F854CD00C851D8549D00E8902FD02C006
:1006900052D0C1F06A857B85AE01475E5F4F46D080
:1006A00089F460E34E855F8548D061F06C857D8577
:1006B0004E815F813BD031F40E8902FF96CE3BD054
:1006C00009F093CE0FEF1FEFE196E8E00C94C50020
:1006D000FE017996E20FF31F0895FE0179962A85AF
:1006E0003B85F8CF088319832A833B8308958E01C5
:1006F000075E1F4F08956C91062F00530A3008952E
:1007000002D098010895F201008111810895FBDF64
:1007100098012E5F3F4F208331830895801B910BFA
:10072000089501E010E00A871B8708959E01830168
:100730009ED0012B089560E2AC019E0183015FD041
:10074000F8CFE1DFA8014E5F5F4F40835183F8018E
:10075000DBCFDFDFF801D8DF20E008954AE050E08A
:100760000E948700060F131F0053104008950D01CB
:100770000256F1F0065049F1045029F0085029F1D1
:10078000065071F022C02CD00C5F2FD01D912D91FE
:100790003C91432F440F440B542F642F742F1EC0E1
:1007A00029D020E030E040E050E060E070E016C08A
:1007B00017D00E5F1AD0102F110F110B212F312FD0
:1007C000412F512F612F712F09C014D0212F220FDB
:1007D000220B322F422F522F622F722FD0010895F9
:1007E000F901A081B1818D0108951F4F008311830C
:1007F0000D910895F5DF0E5FF8DF1C91089518D074
:100800002197688338012901DA0180E090E001C076
:1008100001968A179B0744F461E070E0AE019201F3
:1008200086DFB1F300E001C001E010E021964DCF7A
:100830000C94B500BA93AA93F801D901242F149609
:100840000D911C9115970995FD0104831583012BCA
:1008500049F0008911890F5F1F4F008B118B00E059
:1008600010E002C00FEF1FEFA991B9910895E0DFEA
:1008700038012901DA01CB0100E010E001C0019745
:10088000282F292B21F04D91920102D0C2F71DCFC4
:100890008301D0DF112308950E94BA00C801A22F5E
:1008A000022F10E00E94F4000A17104011F48C018E
:1008B00002C000E010E0E3E00C94CA000D0040012B
:0F08C000C2084F4B0042414400686C747A4C00F0
:0000E60119
:00000001FF
